:100000000AC023C022C09DC120C005C11EC01DC0A2
:100010001CC01BC01AC011241FBECFEDCDBF10E005
:10002000A0E6B0E0E0E7F7E003C0C89531960D9296
:10003000A637B107D1F720E0A6E7B0E001C01D92D6
:10004000A239B207E1F7D1D191C3DACF98B321E059
:1000500030E0082E01C0220F0A94EAF7922B98BBD9
:10006000089598B321E030E0082E01C0220F0A94D1
:10007000EAF72095292328BB089592B321E030E0C8
:10008000082E01C0220F0A94EAF7922B92BB089522
:1000900092B321E030E0082E01C0220F0A94EAF763
:1000A0002095292322BB0895CF93C82F80E0C0FF5D
:1000B00002C0CCDF01C0D5DF81E0C1FF02C0C6DFD6
:1000C00001C0CFDF82E0C2FF02C0C0DF01C0C9DFD4
:1000D00083E0C3FF02C0CF91B9CFCF91C2CFCF93FE
:1000E000C82F83E0D5DF8C2FDFDF84E0C6DF87EE0B
:1000F00093E00197F1F700C0000084E0C9DF87EECC
:1001000093E00197F1F700C00000CF91089580E0DF
:10011000E6DF81E0E4CFCF93C62F813011F480E891
:1001200003C0823059F480EC8C0F859585958595B8
:100130008595D5DF8C2F8F70CF91D1CFCF9108953A
:1001400080E0B2DF8FE19EE40197F1F700C000008C
:1001500083E0C5DF87E893E10197F1F700C0000075
:1001600083E0BDDF87EF9AE20197F1F700C000005E
:1001700083E0B5DF82E0B3DF82E0B1DF88E0AFDFAC
:1001800080E0ADDF8CE0ABDF80E0A9DF86E0A7CFC9
:10019000CF93C82F83E071DF8C2F8595859585954A
:1001A000859582DF84E069DF87EE93E00197F1F7C0
:1001B00000C0000084E06CDF87EE93E00197F1F768
:1001C00000C000008C2F8F706FDF84E056DF87EE59
:1001D00093E00197F1F700C0000084E059DF87EE5B
:1001E00093E00197F1F700C00000CF910895CF93FD
:1001F000DF93C82FD92F8991882311F0C9DFFBCF56
:10020000DF91CF91089581E06ADF8CE068CF81E0D3
:1002100066DF88E064CF1F920F920FB60F92112411
:100220008F939F9380918600813049F4809187005D
:1002300090918800019690938800809387009F9109
:100240008F910F900FBE0F901F9018950F931F93D3
:100250008091870090918800AA2797FDA095BA2FDA
:10026000A82FB92F9927882740917E0050917F00B1
:100270006091800070918100840F951FA61FB71FA9
:1002800080937E0090937F00A0938000B0938100C4
:1002900040918200509183006091840070918500AC
:1002A000082F192F2A2F3B2F041B150B260B370B5A
:1002B000932F822F712F602F32E096958795779537
:1002C00067953A95D1F715D160937A0070937B00CA
:1002D00080937C0090937D001F910F910895F89476
:1002E00026E933E44BE85CE360917A0070917B008F
:1002F00080917C0090917D0063D160937600709333
:100300007700809378009093790001DF80E690E099
:100310006EDF62E082E0FFDE609176007091770030
:100320008091780090917900B3D02AE04DE850E0B8
:10033000DAD18DE890E05BDF8BE690E058DF7894CF
:1003400008951F920F920FB60F9211242F933F938F
:100350004F935F936F937F938F939F93AF93BF93CD
:10036000EF93FF9384B595B5A0E0B0E0809389004A
:1003700090938A00A0938B00B0938C00209186000C
:1003800021110FC08093820090938300A09384007A
:10039000B09385008EB58F7B8EBD81E08093860003
:1003A00013C080937E0090937F00A0938000B09351
:1003B00081008EB580648EBD1092860047DF8FDF8E
:1003C0001092880010928700FF91EF91BF91AF913A
:1003D0009F918F917F916F915F914F913F912F915D
:1003E0000F900FBE0F901F901895F894A89581B5A7
:1003F000886181BD81B5877F81BD88E381BB8FE046
:1004000087BB81EC8EBD88E889BF9ADE80DE80E6FE
:1004100090E0EDDE2FEF84E39CE02150804090409F
:10042000E1F700C000008FE690E0E1DE2FEF84E30B
:100430009CE0215080409040E1F700C0000081E73F
:1004400090E0D5DE2FEF84E39CE021508040904087
:10045000E1F700C0000083E790E0C9DE2FE78AE102
:1004600096E0215080409040E1F700C00000789471
:10047000959A2DE02A95F1F7000095988FE79AE17B
:1004800026E0815090402040E1F700C00000F0CF0E
:1004900004D06894B1118DC0089570D088F09F5732
:1004A00090F0B92F9927B751A0F0D1F0660F771FC0
:1004B000881F991F1AF0BA95C9F712C0B13081F0A0
:1004C00077D0B1E0089574C0672F782F8827B85F80
:1004D00039F0B93FCCF3869577956795B395D9F701
:1004E0003EF490958095709561957F4F8F4F9F4F0B
:1004F0000895E89409C097FB3EF490958095709517
:1005000061957F4F8F4F9F4F9923A9F0F92F96E95F
:10051000BB279395F695879577956795B795F111D4
:10052000F8CFFAF4BB0F11F460FF1BC06F5F7F4F71
:100530008F4F9F4F16C0882311F096E911C0772383
:1005400021F09EE8872F762F05C0662371F096E88C
:10055000862F70E060E02AF09A95660F771F881F5B
:10056000DAF7880F9695879597F9089557FD905873
:10057000440F551F59F05F3F71F04795880F97FB67
:10058000991F61F09F3F79F0879508951216130621
:100590001406551FF2CF4695F1DF08C01616170650
:1005A0001806991FF1CF8695710561050894089585
:1005B000E894BB2766277727862F972F97F908950A
:1005C0000AD080C071D028F076D018F0952309F0B9
:1005D00062C067C0EECFCADFA8F39923D9F35523D1
:1005E000C9F3950F50E0551FAA27EE27FF27BB2719
:1005F00000240894679520F4E20FF31FB41F0A1E2D
:10060000220F331F441FAA1F6695A9F7779530F470
:10061000F30FB41F0A1E121E08F46395330F441F14
:10062000AA1F221F769599F7879520F4B40F0A1E0A
:10063000121E631F440FAA1F221F331F8695A9F79E
:10064000862F712D602D11249F5750408AF0E1F0C4
:1006500088234AF0EE0FFF1FBB1F661F771F881FFE
:1006600091505040A9F79E3F510570F014C0A1CFA2
:100670005F3FECF3983EDCF3869577956795B795E9
:10068000F795E7959F5FC1F7FE2B880F911D969513
:10069000879597F9089597F99F6780E870E060E083
:1006A00008959FEF80EC089500240A94161617060B
:1006B00018060906089500240A9412161306140653
:1006C00005060895092E0394000C11F4882352F0B6
:1006D000BB0F40F4BF2B11F460FF04C06F5F7F4F6E
:1006E0008F4F9F4F0895BB272A3051F4992342F42E
:1006F000BDE290958095709561957F4F8F4F9F4F8C
:1007000001C0BB27E42FF52FA62F621771058105C5
:100710009105330B30FB66F0AA27660F771F881F01
:10072000991FAA1FA21710F0A21B63953850A9F7B2
:10073000A05DAA3308F0A95DA19336F7B111B1937A
:100740001082842F952F00C0A82FB92FE82FF92FE2
:10075000672F71917723E1F7329704C07C916D93F5
:1007600070836291AE17BF07C8F30895F894FFCF66
:1007700044697374616E63653A200020636D0031D3
:060780000032003300000E
:00000001FF
